:020000040000FA
:100000000C9463000C948B000C948B000C948B006C
:100010000C948B000C948B000C948B000C940303B9
:100020000C948B000C948B000C948B000C948B0024
:100030000C948B000C948B000C948B000C948B0014
:100040000C94B9020C948B000C9485030C945F0300
:100050000C948B000C948B000C948B000C948B00F4
:100060000C948B000C948B000000000023002600F1
:1000700029000200000000240027002A00000000E0
:1000800000250028002B00040404040404040402D6
:100090000202020202030303030303010204081025
:1000A00020408001020408102001020408102000F2
:1000B0000000080002010000030407000000000027
:1000C00000000000840611241FBECFEFD8E0DEBF81
:1000D000CDBF11E0A0E0B1E0E2E6F2E102C00590A0
:1000E0000D92A632B107D9F721E0A6E2B1E001C036
:1000F0001D92AD3DB207E1F710E0C3E6D0E004C0C9
:100100002197FE010E941A09C236D107C9F70E9441
:10011000FC030C942F090C94000090E0FC01E155C5
:10012000FF4F2491FC01E556FF4F3491FC01E95744
:10013000FF4FE491EE23C9F0222339F0233001F17F
:10014000A8F4213019F1223029F1F0E0EE0FFF1F61
:10015000E358FF4FA591B4918FB7F894EC916111DA
:1001600026C030953E233C938FBF08952730A9F0D9
:100170002830C9F0243049F7809180008F7D03C07A
:10018000809180008F7780938000DFCF84B58F7758
:1001900084BDDBCF84B58F7DFBCF8091B0008F779E
:1001A0008093B000D2CF8091B0008F7DF9CF3E2BED
:1001B000DACFCF93DF9390E0FC01E556FF4F249117
:1001C00089579F4FFC0184918823D1F090E0880FDC
:1001D000991FFC01ED58FF4FA591B491FC01E35824
:1001E000FF4FC591D49161110EC09FB7F8948C91C7
:1001F000E22FE0958E238C932881E223E8839FBF32
:10020000DF91CF9108958FB7F894EC91E22BEC93A6
:100210008FBFF6CF3FB7F89480913C0190913D019C
:10022000A0913E01B0913F0126B5A89B05C02F3F8C
:1002300019F00196A11DB11D3FBFBA2FA92F982F0C
:100240008827BC01CD01620F711D811D911D42E007
:10025000660F771F881F991F4A95D1F708959091CF
:10026000000189130BC0E2E7F0E0E4919FEF909367
:100270000001E13049F028F0E23061F060E00C94D8
:100280008D0010926E00FACF90916F009D7F909339
:100290006F00F4CF909170009D7F9093700091E07B
:1002A0009093B0009091B100987F94609093B100CA
:1002B0001092B300E3CFAF92BF92CF92DF92EF9252
:1002C000FF920F931F93CF93DF936C017B018B0100
:1002D000040F151FEB015E01AE18BF08C017D10750
:1002E00059F06991D601ED91FC910190F081E02DDA
:1002F000C6010995892B79F7C501DF91CF911F912F
:100300000F91FF90EF90DF90CF90BF90AF90089546
:10031000FC01538D448D252F30E0842F90E0821B0B
:10032000930B541710F0CF96089501970895FC0190
:10033000918D828D981761F0A28DAE0FBF2FB11DE8
:100340005D968C91928D9F5F9F73928F90E0089540
:100350008FEF9FEF0895FC01918D828D981731F0FA
:10036000828DE80FF11D858D90E008958FEF9FEF4E
:100370000895FC01918D228D892F90E0805C9F4F24
:10038000821B91098F739927089580E491E00E9460
:10039000B90121E0892B09F420E0822F089580E043
:1003A00090E0892B29F00E94C50181110C94000076
:1003B0000895FC01A48DA80FB92FB11DA35ABF4FFA
:1003C0002C91848D90E001968F739927848FA68954
:1003D000B7892C93A089B1898C91837080648C93A8
:1003E000938D848D981306C00288F389E02D808157
:1003F0008F7D80830895EF92FF920F931F93CF9389
:10040000DF93EC0181E0888F9B8D8C8D98131AC04F
:10041000E889F989808185FF15C09FB7F894EE8936
:10042000FF896083E889F989808183708064808393
:100430009FBF81E090E0DF91CF911F910F91FF90DE
:10044000EF900895F62E0B8D10E00F5F1F4F0F7386
:100450001127E02E8C8D8E110CC00FB607FCFACF41
:10046000E889F989808185FFF5CFCE010E94D90105
:10047000F1CFEB8DEC0FFD2FF11DE35AFF4FF08212
:100480009FB7F8940B8FEA89FB8980818062CFCF78
:10049000CF93DF93EC01888D8823B9F0AA89BB89BB
:1004A000E889F9898C9185FD03C0808186FD0DC0A6
:1004B0000FB607FCF7CF8C9185FFF2CF808185FFC7
:1004C000EDCFCE010E94D901E9CFDF91CF91089500
:1004D000FC0101900020E9F73197AF01481B590B4F
:1004E000BC0180E491E00C945B018F929F92AF92EB
:1004F000BF920F931F93CF93DF93CDB7DEB7A19732
:100500000FB6F894DEBF0FBECDBF19A2423008F47B
:100510004AE08E010F5D1F4F842E912CB12CA12C2F
:10052000A50194010E94ED08E62FB901CA01EA3045
:10053000F4F4E05DD801EE938D01232B242B252BC1
:1005400079F790E080E0109719F0CD010E946802E1
:10055000A1960FB6F894DEBF0FBECDBFDF91CF914D
:100560001F910F91BF90AF909F908F900895E95C7D
:10057000E1CF1F920F920FB60F9211242F933F934A
:100580008F939F93AF93BF938091380190913901DE
:10059000A0913A01B0913B013091370123E0230F44
:1005A0002D3758F50196A11DB11D20933701809379
:1005B000380190933901A0933A01B0933B018091A7
:1005C0003C0190913D01A0913E01B0913F01019607
:1005D000A11DB11D80933C0190933D01A0933E016C
:1005E000B0933F01BF91AF919F918F913F912F9118
:1005F0000F900FBE0F901F90189526E8230F0296BC
:10060000A11DB11DD2CF1F920F920FB60F921124D0
:100610002F933F934F935F936F937F938F939F930A
:10062000AF93BF93EF93FF9380912B0190912C0197
:10063000A0912D01B0912E01892B8A2B8B2BD1F10A
:1006400090912601E0912701F0912801808189276E
:10065000808380912B0190912C01A0912D01B0916C
:100660002E01181619061A061B069CF480912B0100
:1006700090912C01A0912D01B0912E010197A1091B
:10068000B10980932B0190932C01A0932D01B0937D
:100690002E01FF91EF91BF91AF919F918F917F912B
:1006A0006F915F914F913F912F910F900FBE0F90DF
:1006B0001F901895809100010E942F01EACF1F9290
:1006C0000F920FB60F9211242F933F934F935F9386
:1006D0006F937F938F939F93AF93BF93EF93FF930A
:1006E00080E491E00E94D901FF91EF91BF91AF9119
:1006F0009F918F917F916F915F914F913F912F913A
:100700000F900FBE0F901F9018951F920F920FB66B
:100710000F9211242F938F939F93EF93FF93E09168
:100720005001F09151018081E0915601F091570103
:1007300082FD1BC09081809159018F5F8F73209142
:100740005A01821741F0E0915901F0E0E05CFE4F60
:10075000958F80935901FF91EF919F918F912F91E8
:100760000F900FBE0F901F9018958081F4CFCF92FD
:10077000DF92EF92FF920F931F93E82FF92F05C09E
:10078000015011092109310961F1908196239417D3
:10079000B9F305C0015011092109310911F1908106
:1007A00096239413F7CFC12CD12CE12CF12C0AC045
:1007B0008FEFC81AD80AE80AF80A0C151D052E058D
:1007C0003F0579F080818623841791F36C2D7D2D70
:1007D0008E2D9F2D1F910F91FF90EF90DF90CF9066
:1007E000089560E070E080E090E01F910F91FF902D
:1007F000EF90DF90CF900895789484B5826084BDA7
:1008000084B5816084BD85B5826085BD85B5816014
:1008100085BD80916E00816080936E001092810092
:10082000809181008260809381008091810081604D
:10083000809381008091800081608093800080910E
:10084000B10084608093B1008091B000816080939A
:10085000B00080917A00846080937A0080917A0061
:10086000826080937A0080917A00816080937A0020
:1008700080917A00806880937A001092C100E091A4
:100880005001F091510182E08083E0914C01F091A0
:100890004D011082E0914E01F0914F018FEC808369
:1008A00010925801E0915401F091550186E0808347
:1008B000E0915201F0915301808180618083E09149
:1008C0005201F0915301808188608083E091520150
:1008D000F0915301808180688083E0915201F09112
:1008E000530180818F7D808361E089E00E94D9007F
:1008F00060E088E00E94D90061E085E00E94D900B4
:1009000059E8252E50E0352ECDE9D0E060E089E0B1
:100910000E948D0060E088E00E948D0083E090E0FE
:100920000197F1F761E089E00E948D0083E290E099
:100930000197F1F760E089E00E948D00E3EAF0E0C2
:100940006491EFE8F0E08491E82FF0E0EE0FFF1FF4
:10095000E859FF4F8591949100E412E42FE030E0D4
:10096000462F0E94B7039B01AC01211531054105BB
:10097000510529F02F5F3F4F4F4F5F4F5F70A4E548
:10098000B1E00E940F090E94C40720E030E44CE16E
:1009900056E40E94230720E030E040E05FE30E943D
:1009A0007B086B017C01AC019B010E94E808882355
:1009B00009F450C083E191E00E9468028FE191E068
:1009C0000E94680282E291E00E94680220E030E02A
:1009D00040EA50E4C701B6010E94760818160CF0F0
:1009E000B5C060E085E00E948D0082E00E942F018A
:1009F0000E940A014B015C0188EEC82E83E0D82ECC
:100A0000E12CF12C0E940A01681979098A099B09D5
:100A1000683E734081059105A8F391E0C91AD10899
:100A2000E108F108A8EE8A0EA3E09A1EA11CB11CF1
:100A3000C114D104E104F10429F7E0E0F0E0EF2B68
:100A400009F464CF0E94C501882309F45FCF0E9496
:100A500000005CCF2FEF3FEF4FE75FE7C701B60124
:100A60000E94E80881110DC02FEF3FEF4FE75FE7CD
:100A7000C701B6010E941E0718161CF487E191E019
:100A80009BCF2FEF3FEF4FE75FE4C701B6010E9416
:100A9000760818161CF48BE191E08ECF2FEF3FEF14
:100AA0004FE75FECC701B6010E941E0787FDF3CF39
:100AB0002AE037ED43EA5BE3C701B6010E94B206C4
:100AC0002B013C010E9495074B015C010E94C40769
:100AD0009B01AC01C301B2010E94B1062B013C0194
:100AE0004AE0C501B4010E9475026EE280E491E023
:100AF0000E94FB0120E030E040E251E4C301B2017A
:100B00000E947B082B013C010E9495074B01B12CF0
:100B1000A12C4AE0C501B4010E947502C501B401CF
:100B20000E94C4079B01AC01C301B2010E94B1063F
:100B300020E030E040E251E40E947B080E949507EB
:100B400090E080E04AE00E94750238CF61E085E0E5
:100B50000E948D00809100018230B9F4E2E7F0E05C
:100B6000149117FD45CF61E082E00E94D900112366
:100B700009F47AC0123009F08EC08091B100887FEC
:100B800084608093B10081EBACC08F3F09F030CF1F
:100B900082E080930001E2E7F0E014911F3F09F446
:100BA00027CF113019F150F0123009F43CC017FD75
:100BB0001FCF61E082E00E94D900DCCF14BC15BCDD
:100BC00084B5826084BD85B5816085BDF101849165
:100BD000E82FF0E0EE0FFF1FE358FF4F859194914F
:100BE000FE01849180932A0110E0BDCF1092800015
:100BF00010928100809181008860809381008091B3
:100C00008100816080938100F1018491E82FF0E000
:100C1000EE0FFF1FE358FF4F85919491FE018491E1
:100C200080932901A0CF1092B0001092B100809162
:100C3000B00082608093B0008091B10081608093A9
:100C4000B100F1018491E82FF0E0EE0FFF1FE358AF
:100C5000FF4F859194919093280180932701FE0185
:100C60008491809326017FCF85B5887F836085BD81
:100C700081EB87BD8FEF9FEFDC0180933301909371
:100C80003401A0933501B093360180916E008260EB
:100C900080936E00ADCE1130E9F480918100887FA1
:100CA00081608093810083EA9CE290938900809325
:100CB00088008FEF9FEFDC0180932F01909330012C
:100CC000A0933101B093320180916F0082608093D4
:100CD0006F008ECE123021F011118ACE83EAC9CF77
:100CE00083EA8093B3008FEF9FEFDC0180932B01A9
:100CF00090932C01A0932D01B0932E018091700050
:100D000082608093700074CEE0E4F1E0138212827E
:100D100088EE93E0A0E0B0E084839583A683B78358
:100D200085E091E09183808385EC90E095878487CE
:100D300084EC90E09787868780EC90E0918B808BA5
:100D400081EC90E0938B828B82EC90E0958B848B8E
:100D500086EC90E0978B868B118E128E138E148EFC
:100D600008955058BB27AA270E94C9060C943C0836
:100D70000E942E0838F00E94350820F039F49F3F79
:100D800019F426F40C942B080EF4E095E7FB0C9470
:100D90002508E92F0E944D0858F3BA176207730718
:100DA0008407950720F079F4A6F50C946F080EF4EB
:100DB000E0950B2EBA2FA02D0B01B90190010C016B
:100DC000CA01A0011124FF27591B99F0593F50F483
:100DD000503E68F11A16F040A22F232F342F4427DB
:100DE000585FF3CF469537952795A795F0405395D3
:100DF000C9F77EF41F16BA0B620B730B840BBAF0A3
:100E00009150A1F0FF0FBB1F661F771F881FC2F70D
:100E10000EC0BA0F621F731F841F48F48795779521
:100E20006795B795F7959E3F08F0B0CF9395880FDB
:100E300008F09927EE0F9795879508950E9401086D
:100E400008F481E008950E9437070C943C080E9442
:100E5000350858F00E942E0840F029F45F3F29F031
:100E60000C94250851110C9470080C942B080E94C6
:100E70004D0868F39923B1F3552391F3951B550B56
:100E8000BB27AA2762177307840738F09F5F5F4F5D
:100E9000220F331F441FAA1FA9F335D00E2E3AF09C
:100EA000E0E832D091505040E695001CCAF72BD0B4
:100EB000FE2F29D0660F771F881FBB1F2617370705
:100EC0004807AB07B0E809F0BB0B802DBF01FF2737
:100ED00093585F4F3AF09E3F510578F00C942508E7
:100EE0000C9470085F3FE4F3983ED4F386957795B1
:100EF0006795B795F7959F5FC9F7880F911D9695F0
:100F0000879597F90895E1E0660F771F881FBB1F4B
:100F1000621773078407BA0720F0621B730B840BF8
:100F2000BA0BEE1F88F7E09508950E94550888F0E7
:100F30009F5798F0B92F9927B751B0F0E1F0660F9D
:100F4000771F881F991F1AF0BA95C9F714C0B130DE
:100F500091F00E946F08B1E008950C946F08672F1C
:100F6000782F8827B85F39F0B93FCCF3869577950D
:100F70006795B395D9F73EF49095809570956195F6
:100F80007F4F8F4F9F4F0895E89409C097FB3EF421
:100F900090958095709561957F4F8F4F9F4F9923C6
:100FA000A9F0F92F96E9BB279395F6958795779544
:100FB0006795B795F111F8CFFAF4BB0F11F460FF04
:100FC0001BC06F5F7F4F8F4F9F4F16C0882311F05C
:100FD00096E911C0772321F09EE8872F762F05C070
:100FE000662371F096E8862F70E060E02AF09A950B
:100FF000660F771F881FDAF7880F9695879597F900
:101000000895990F0008550FAA0BE0E8FEEF161699
:101010001706E807F907C0F012161306E407F507EC
:1010200098F0621B730B840B950B39F40A2661F060
:10103000232B242B252B21F408950A2609F4A14003
:10104000A6958FEF811D811D089597F99F6780E810
:1010500070E060E008959FEF80EC089500240A940A
:101060001616170618060906089500240A94121683
:101070001306140605060895092E0394000C11F4B6
:10108000882352F0BB0F40F4BF2B11F460FF04C063
:101090006F5F7F4F8F4F9F4F089557FD9058440FBC
:1010A000551F59F05F3F71F04795880F97FB991FC7
:1010B00061F09F3F79F08795089512161306140684
:1010C000551FF2CF4695F1DF08C016161706180611
:1010D000991FF1CF86957105610508940895E894EC
:1010E000BB2766277727CB0197F908950E9401084F
:1010F00008F48FEF08950E948E080C943C080E941B
:101100002E0838F00E94350820F0952311F00C9439
:1011100025080C942B0811240C9470080E944D088B
:1011200070F3959FC1F3950F50E0551F629FF0013A
:10113000729FBB27F00DB11D639FAA27F00DB11D53
:10114000AA1F649F6627B00DA11D661F829F2227DC
:10115000B00DA11D621F739FB00DA11D621F839F63
:10116000A00D611D221F749F3327A00D611D231F39
:10117000849F600D211D822F762F6A2F11249F5787
:1011800050409AF0F1F088234AF0EE0FFF1FBB1F8A
:10119000661F771F881F91505040A9F79E3F510549
:1011A00080F00C9425080C9470085F3FE4F3983E9F
:1011B000D4F3869577956795B795F795E7959F5FF3
:1011C000C1F7FE2B880F911D9695879597F9089585
:1011D0000E940108880B990B0895A1E21A2EAA1B00
:1011E000BB1BFD010DC0AA1FBB1FEE1FFF1FA217D7
:1011F000B307E407F50720F0A21BB30BE40BF50BD4
:10120000661F771F881F991F1A9469F7609570955C
:10121000809590959B01AC01BD01CF0108950E947E
:101220002009A59F900DB49F900DA49F800D911D46
:1012300011240895EE0FFF1F0590F491E02D0994FD
:10124000A29FB001B39FC001A39F700D811D112407
:10125000911DB29F700D811D1124911D0895F89468
:10126000FFCFFF00000000FB015B0188014802B9CD
:10127000019701AB016E616E00696E66006F766664
:0812800000636D000D0A00007F
:107E0000112484B714BE81FFF0D085E080938100F7
:107E100082E08093C00088E18093C10086E0809377
:107E2000C20080E18093C4008EE0C9D0259A86E02C
:107E300020E33CEF91E0309385002093840096BBD3
:107E4000B09BFECF1D9AA8958150A9F7CC24DD24C4
:107E500088248394B5E0AB2EA1E19A2EF3E0BF2EE7
:107E6000A2D0813461F49FD0082FAFD0023811F036
:107E7000013811F484E001C083E08DD089C08234E0
:107E800011F484E103C0853419F485E0A6D080C0E4
:107E9000853579F488D0E82EFF2485D0082F10E0AE
:107EA000102F00270E291F29000F111F8ED06801E7
:107EB0006FC0863521F484E090D080E0DECF843638
:107EC00009F040C070D06FD0082F6DD080E0C81688
:107ED00080E7D80618F4F601B7BEE895C0E0D1E017
:107EE00062D089930C17E1F7F0E0CF16F0E7DF06D8
:107EF00018F0F601B7BEE89568D007B600FCFDCFD4
:107F0000A601A0E0B1E02C9130E011968C91119780
:107F100090E0982F8827822B932B1296FA010C0160
:107F200087BEE89511244E5F5F4FF1E0A038BF0790
:107F300051F7F601A7BEE89507B600FCFDCF97BE46
:107F4000E89526C08437B1F42ED02DD0F82E2BD052
:107F50003CD0F601EF2C8F010F5F1F4F84911BD097
:107F6000EA94F801C1F70894C11CD11CFA94CF0C13
:107F7000D11C0EC0853739F428D08EE10CD085E9AC
:107F80000AD08FE07ACF813511F488E018D01DD067
:107F900080E101D065CF982F8091C00085FFFCCF94
:107FA0009093C60008958091C00087FFFCCF809118
:107FB000C00084FD01C0A8958091C6000895E0E648
:107FC000F0E098E1908380830895EDDF803219F02E
:107FD00088E0F5DFFFCF84E1DECF1F93182FE3DFCA
:107FE0001150E9F7F2DF1F91089580E0E8DFEE27F6
:047FF000FF270994CA
:027FFE00040479
:00000001FF
